{
  "_format": "hh-sol-artifact-1",
  "contractName": "Ember",
  "sourceName": "contracts/Ember.sol",
  "abi": [
    {
      "inputs": [],
      "stateMutability": "nonpayable",
      "type": "constructor"
    },
    {
      "inputs": [
        {
          "internalType": "address",
          "name": "sender",
          "type": "address"
        },
        {
          "internalType": "uint256",
          "name": "tokenId",
          "type": "uint256"
        },
        {
          "internalType": "address",
          "name": "owner",
          "type": "address"
        }
      ],
      "name": "ERC721IncorrectOwner",
      "type": "error"
    },
    {
      "inputs": [
        {
          "internalType": "address",
          "name": "operator",
          "type": "address"
        },
        {
          "internalType": "uint256",
          "name": "tokenId",
          "type": "uint256"
        }
      ],
      "name": "ERC721InsufficientApproval",
      "type": "error"
    },
    {
      "inputs": [
        {
          "internalType": "address",
          "name": "approver",
          "type": "address"
        }
      ],
      "name": "ERC721InvalidApprover",
      "type": "error"
    },
    {
      "inputs": [
        {
          "internalType": "address",
          "name": "operator",
          "type": "address"
        }
      ],
      "name": "ERC721InvalidOperator",
      "type": "error"
    },
    {
      "inputs": [
        {
          "internalType": "address",
          "name": "owner",
          "type": "address"
        }
      ],
      "name": "ERC721InvalidOwner",
      "type": "error"
    },
    {
      "inputs": [
        {
          "internalType": "address",
          "name": "receiver",
          "type": "address"
        }
      ],
      "name": "ERC721InvalidReceiver",
      "type": "error"
    },
    {
      "inputs": [
        {
          "internalType": "address",
          "name": "sender",
          "type": "address"
        }
      ],
      "name": "ERC721InvalidSender",
      "type": "error"
    },
    {
      "inputs": [
        {
          "internalType": "uint256",
          "name": "tokenId",
          "type": "uint256"
        }
      ],
      "name": "ERC721NonexistentToken",
      "type": "error"
    },
    {
      "anonymous": false,
      "inputs": [
        {
          "indexed": true,
          "internalType": "address",
          "name": "owner",
          "type": "address"
        },
        {
          "indexed": true,
          "internalType": "address",
          "name": "approved",
          "type": "address"
        },
        {
          "indexed": true,
          "internalType": "uint256",
          "name": "tokenId",
          "type": "uint256"
        }
      ],
      "name": "Approval",
      "type": "event"
    },
    {
      "anonymous": false,
      "inputs": [
        {
          "indexed": true,
          "internalType": "address",
          "name": "owner",
          "type": "address"
        },
        {
          "indexed": true,
          "internalType": "address",
          "name": "operator",
          "type": "address"
        },
        {
          "indexed": false,
          "internalType": "bool",
          "name": "approved",
          "type": "bool"
        }
      ],
      "name": "ApprovalForAll",
      "type": "event"
    },
    {
      "anonymous": false,
      "inputs": [
        {
          "indexed": false,
          "internalType": "uint256",
          "name": "_fromTokenId",
          "type": "uint256"
        },
        {
          "indexed": false,
          "internalType": "uint256",
          "name": "_toTokenId",
          "type": "uint256"
        }
      ],
      "name": "BatchMetadataUpdate",
      "type": "event"
    },
    {
      "anonymous": false,
      "inputs": [
        {
          "indexed": false,
          "internalType": "uint256",
          "name": "_tokenId",
          "type": "uint256"
        }
      ],
      "name": "MetadataUpdate",
      "type": "event"
    },
    {
      "anonymous": false,
      "inputs": [
        {
          "indexed": true,
          "internalType": "address",
          "name": "from",
          "type": "address"
        },
        {
          "indexed": true,
          "internalType": "address",
          "name": "to",
          "type": "address"
        },
        {
          "indexed": true,
          "internalType": "uint256",
          "name": "tokenId",
          "type": "uint256"
        }
      ],
      "name": "Transfer",
      "type": "event"
    },
    {
      "inputs": [
        {
          "internalType": "address",
          "name": "to",
          "type": "address"
        },
        {
          "internalType": "uint256",
          "name": "tokenId",
          "type": "uint256"
        }
      ],
      "name": "approve",
      "outputs": [],
      "stateMutability": "nonpayable",
      "type": "function"
    },
    {
      "inputs": [
        {
          "internalType": "address",
          "name": "owner",
          "type": "address"
        }
      ],
      "name": "balanceOf",
      "outputs": [
        {
          "internalType": "uint256",
          "name": "",
          "type": "uint256"
        }
      ],
      "stateMutability": "view",
      "type": "function"
    },
    {
      "inputs": [
        {
          "internalType": "uint256",
          "name": "tokenId",
          "type": "uint256"
        }
      ],
      "name": "generateCharacter",
      "outputs": [
        {
          "internalType": "string",
          "name": "",
          "type": "string"
        }
      ],
      "stateMutability": "view",
      "type": "function"
    },
    {
      "inputs": [
        {
          "internalType": "uint256",
          "name": "tokenId",
          "type": "uint256"
        }
      ],
      "name": "getApproved",
      "outputs": [
        {
          "internalType": "address",
          "name": "",
          "type": "address"
        }
      ],
      "stateMutability": "view",
      "type": "function"
    },
    {
      "inputs": [
        {
          "internalType": "uint256",
          "name": "tokenId",
          "type": "uint256"
        }
      ],
      "name": "getLevels",
      "outputs": [
        {
          "internalType": "string",
          "name": "",
          "type": "string"
        }
      ],
      "stateMutability": "view",
      "type": "function"
    },
    {
      "inputs": [
        {
          "internalType": "uint256",
          "name": "tokenId",
          "type": "uint256"
        }
      ],
      "name": "getTokenURI",
      "outputs": [
        {
          "internalType": "string",
          "name": "",
          "type": "string"
        }
      ],
      "stateMutability": "view",
      "type": "function"
    },
    {
      "inputs": [
        {
          "internalType": "address",
          "name": "owner",
          "type": "address"
        },
        {
          "internalType": "address",
          "name": "operator",
          "type": "address"
        }
      ],
      "name": "isApprovedForAll",
      "outputs": [
        {
          "internalType": "bool",
          "name": "",
          "type": "bool"
        }
      ],
      "stateMutability": "view",
      "type": "function"
    },
    {
      "inputs": [],
      "name": "mint",
      "outputs": [],
      "stateMutability": "nonpayable",
      "type": "function"
    },
    {
      "inputs": [],
      "name": "name",
      "outputs": [
        {
          "internalType": "string",
          "name": "",
          "type": "string"
        }
      ],
      "stateMutability": "view",
      "type": "function"
    },
    {
      "inputs": [
        {
          "internalType": "uint256",
          "name": "tokenId",
          "type": "uint256"
        }
      ],
      "name": "ownerOf",
      "outputs": [
        {
          "internalType": "address",
          "name": "",
          "type": "address"
        }
      ],
      "stateMutability": "view",
      "type": "function"
    },
    {
      "inputs": [
        {
          "internalType": "address",
          "name": "from",
          "type": "address"
        },
        {
          "internalType": "address",
          "name": "to",
          "type": "address"
        },
        {
          "internalType": "uint256",
          "name": "tokenId",
          "type": "uint256"
        }
      ],
      "name": "safeTransferFrom",
      "outputs": [],
      "stateMutability": "nonpayable",
      "type": "function"
    },
    {
      "inputs": [
        {
          "internalType": "address",
          "name": "from",
          "type": "address"
        },
        {
          "internalType": "address",
          "name": "to",
          "type": "address"
        },
        {
          "internalType": "uint256",
          "name": "tokenId",
          "type": "uint256"
        },
        {
          "internalType": "bytes",
          "name": "data",
          "type": "bytes"
        }
      ],
      "name": "safeTransferFrom",
      "outputs": [],
      "stateMutability": "nonpayable",
      "type": "function"
    },
    {
      "inputs": [
        {
          "internalType": "address",
          "name": "operator",
          "type": "address"
        },
        {
          "internalType": "bool",
          "name": "approved",
          "type": "bool"
        }
      ],
      "name": "setApprovalForAll",
      "outputs": [],
      "stateMutability": "nonpayable",
      "type": "function"
    },
    {
      "inputs": [
        {
          "internalType": "bytes4",
          "name": "interfaceId",
          "type": "bytes4"
        }
      ],
      "name": "supportsInterface",
      "outputs": [
        {
          "internalType": "bool",
          "name": "",
          "type": "bool"
        }
      ],
      "stateMutability": "view",
      "type": "function"
    },
    {
      "inputs": [],
      "name": "symbol",
      "outputs": [
        {
          "internalType": "string",
          "name": "",
          "type": "string"
        }
      ],
      "stateMutability": "view",
      "type": "function"
    },
    {
      "inputs": [
        {
          "internalType": "uint256",
          "name": "",
          "type": "uint256"
        }
      ],
      "name": "tokenIdtoLevels",
      "outputs": [
        {
          "internalType": "uint256",
          "name": "",
          "type": "uint256"
        }
      ],
      "stateMutability": "view",
      "type": "function"
    },
    {
      "inputs": [
        {
          "internalType": "uint256",
          "name": "tokenId",
          "type": "uint256"
        }
      ],
      "name": "tokenURI",
      "outputs": [
        {
          "internalType": "string",
          "name": "",
          "type": "string"
        }
      ],
      "stateMutability": "view",
      "type": "function"
    },
    {
      "inputs": [
        {
          "internalType": "uint256",
          "name": "tokenId",
          "type": "uint256"
        }
      ],
      "name": "train",
      "outputs": [],
      "stateMutability": "nonpayable",
      "type": "function"
    },
    {
      "inputs": [
        {
          "internalType": "address",
          "name": "from",
          "type": "address"
        },
        {
          "internalType": "address",
          "name": "to",
          "type": "address"
        },
        {
          "internalType": "uint256",
          "name": "tokenId",
          "type": "uint256"
        }
      ],
      "name": "transferFrom",
      "outputs": [],
      "stateMutability": "nonpayable",
      "type": "function"
    }
  ],
  "bytecode": "0x608060405260006007553480156200001657600080fd5b506040518060400160405280600581526020017f456d6265720000000000000000000000000000000000000000000000000000008152506040518060400160405280600381526020017f454d420000000000000000000000000000000000000000000000000000000000815250816000908162000094919062000329565b508060019081620000a6919062000329565b50505062000410565b600081519050919050565b7f4e487b7100000000000000000000000000000000000000000000000000000000600052604160045260246000fd5b7f4e487b7100000000000000000000000000000000000000000000000000000000600052602260045260246000fd5b600060028204905060018216806200013157607f821691505b602082108103620001475762000146620000e9565b5b50919050565b60008190508160005260206000209050919050565b60006020601f8301049050919050565b600082821b905092915050565b600060088302620001b17fffffffffffffffffffffffffffffffffffffffffffffffffffffffffffffffff8262000172565b620001bd868362000172565b95508019841693508086168417925050509392505050565b6000819050919050565b6000819050919050565b60006200020a62000204620001fe84620001d5565b620001df565b620001d5565b9050919050565b6000819050919050565b6200022683620001e9565b6200023e620002358262000211565b8484546200017f565b825550505050565b600090565b6200025562000246565b620002628184846200021b565b505050565b5b818110156200028a576200027e6000826200024b565b60018101905062000268565b5050565b601f821115620002d957620002a3816200014d565b620002ae8462000162565b81016020851015620002be578190505b620002d6620002cd8562000162565b83018262000267565b50505b505050565b600082821c905092915050565b6000620002fe60001984600802620002de565b1980831691505092915050565b6000620003198383620002eb565b9150826002028217905092915050565b6200033482620000af565b67ffffffffffffffff81111562000350576200034f620000ba565b5b6200035c825462000118565b620003698282856200028e565b600060209050601f831160018114620003a157600084156200038c578287015190505b6200039885826200030b565b86555062000408565b601f198416620003b1866200014d565b60005b82811015620003db57848901518255600182019150602085019450602081019050620003b4565b86831015620003fb5784890151620003f7601f891682620002eb565b8355505b6001600288020188555050505b505050505050565b6130cd80620004206000396000f3fe608060405234801561001057600080fd5b50600436106101215760003560e01c806342842e0e116100ad578063b88d4fde11610071578063b88d4fde14610318578063c87b56dd14610334578063ce716e9514610364578063e985e9c514610394578063f43785f9146103c457610121565b806342842e0e146102625780636352211e1461027e57806370a08231146102ae57806395d89b41146102de578063a22cb465146102fc57610121565b80630daefed5116100f45780630daefed5146101c05780631249c58b146101f057806323b872dd146101fa578063368004ed146102165780633bb3a24d1461023257610121565b806301ffc9a71461012657806306fdde0314610156578063081812fc14610174578063095ea7b3146101a4575b600080fd5b610140600480360381019061013b9190611c9b565b6103f4565b60405161014d9190611ce3565b60405180910390f35b61015e610455565b60405161016b9190611d8e565b60405180910390f35b61018e60048036038101906101899190611de6565b6104e7565b60405161019b9190611e54565b60405180910390f35b6101be60048036038101906101b99190611e9b565b610503565b005b6101da60048036038101906101d59190611de6565b610519565b6040516101e79190611d8e565b60405180910390f35b6101f8610577565b005b610214600480360381019061020f9190611edb565b6105ce565b005b610230600480360381019061022b9190611de6565b6106d0565b005b61024c60048036038101906102479190611de6565b610798565b6040516102599190611d8e565b60405180910390f35b61027c60048036038101906102779190611edb565b610800565b005b61029860048036038101906102939190611de6565b610820565b6040516102a59190611e54565b60405180910390f35b6102c860048036038101906102c39190611f2e565b610832565b6040516102d59190611f6a565b60405180910390f35b6102e66108ec565b6040516102f39190611d8e565b60405180910390f35b61031660048036038101906103119190611fb1565b61097e565b005b610332600480360381019061032d9190612126565b610994565b005b61034e60048036038101906103499190611de6565b6109b1565b60405161035b9190611d8e565b60405180910390f35b61037e60048036038101906103799190611de6565b610ac4565b60405161038b9190611f6a565b60405180910390f35b6103ae60048036038101906103a991906121a9565b610adc565b6040516103bb9190611ce3565b60405180910390f35b6103de60048036038101906103d99190611de6565b610b70565b6040516103eb9190611d8e565b60405180910390f35b6000634906490660e01b7bffffffffffffffffffffffffffffffffffffffffffffffffffffffff1916827bffffffffffffffffffffffffffffffffffffffffffffffffffffffff1916148061044e575061044d82610b9b565b5b9050919050565b60606000805461046490612218565b80601f016020809104026020016040519081016040528092919081815260200182805461049090612218565b80156104dd5780601f106104b2576101008083540402835291602001916104dd565b820191906000526020600020905b8154815290600101906020018083116104c057829003601f168201915b5050505050905090565b60006104f282610c7d565b506104fc82610d05565b9050919050565b6105158282610510610d42565b610d4a565b5050565b6060600061052683610b70565b60405160200161053691906126ad565b604051602081830303815290604052905061055081610d5c565b604051602001610560919061277e565b604051602081830303815290604052915050919050565b6007600081548092919061058a906127cf565b9190505550600060075490506105a03382610ece565b600060086000838152602001908152602001600020819055506105cb816105c683610798565b610eec565b50565b600073ffffffffffffffffffffffffffffffffffffffff168273ffffffffffffffffffffffffffffffffffffffff16036106405760006040517f64a0ae920000000000000000000000000000000000000000000000000000000081526004016106379190611e54565b60405180910390fd5b6000610654838361064f610d42565b610f48565b90508373ffffffffffffffffffffffffffffffffffffffff168173ffffffffffffffffffffffffffffffffffffffff16146106ca578382826040517f64283d7b0000000000000000000000000000000000000000000000000000000081526004016106c193929190612817565b60405180910390fd5b50505050565b3373ffffffffffffffffffffffffffffffffffffffff166106f082610820565b73ffffffffffffffffffffffffffffffffffffffff1614610746576040517f08c379a000000000000000000000000000000000000000000000000000000000815260040161073d9061289a565b60405180910390fd5b60006008600083815260200190815260200160002054905060018161076b91906128ba565b60086000848152602001908152602001600020819055506107948261078f84610798565b610eec565b5050565b606060006107a583611162565b6107ae84610519565b6040516020016107bf929190612b28565b60405160208183030381529060405290506107d981610d5c565b6040516020016107e99190612be5565b604051602081830303815290604052915050919050565b61081b83838360405180602001604052806000815250610994565b505050565b600061082b82610c7d565b9050919050565b60008073ffffffffffffffffffffffffffffffffffffffff168273ffffffffffffffffffffffffffffffffffffffff16036108a55760006040517f89c62b6400000000000000000000000000000000000000000000000000000000815260040161089c9190611e54565b60405180910390fd5b600360008373ffffffffffffffffffffffffffffffffffffffff1673ffffffffffffffffffffffffffffffffffffffff168152602001908152602001600020549050919050565b6060600180546108fb90612218565b80601f016020809104026020016040519081016040528092919081815260200182805461092790612218565b80156109745780601f1061094957610100808354040283529160200191610974565b820191906000526020600020905b81548152906001019060200180831161095757829003601f168201915b5050505050905090565b610990610989610d42565b8383611230565b5050565b61099f8484846105ce565b6109ab8484848461139f565b50505050565b60606109bc82610c7d565b5060006006600084815260200190815260200160002080546109dd90612218565b80601f0160208091040260200160405190810160405280929190818152602001828054610a0990612218565b8015610a565780601f10610a2b57610100808354040283529160200191610a56565b820191906000526020600020905b815481529060010190602001808311610a3957829003601f168201915b505050505090506000610a67611556565b90506000815103610a7c578192505050610abf565b600082511115610ab1578082604051602001610a99929190612c07565b60405160208183030381529060405292505050610abf565b610aba8461156d565b925050505b919050565b60086020528060005260406000206000915090505481565b6000600560008473ffffffffffffffffffffffffffffffffffffffff1673ffffffffffffffffffffffffffffffffffffffff16815260200190815260200160002060008373ffffffffffffffffffffffffffffffffffffffff1673ffffffffffffffffffffffffffffffffffffffff16815260200190815260200160002060009054906101000a900460ff16905092915050565b6060600060086000848152602001908152602001600020549050610b9381611162565b915050919050565b60007f80ac58cd000000000000000000000000000000000000000000000000000000007bffffffffffffffffffffffffffffffffffffffffffffffffffffffff1916827bffffffffffffffffffffffffffffffffffffffffffffffffffffffff19161480610c6657507f5b5e139f000000000000000000000000000000000000000000000000000000007bffffffffffffffffffffffffffffffffffffffffffffffffffffffff1916827bffffffffffffffffffffffffffffffffffffffffffffffffffffffff1916145b80610c765750610c75826115d6565b5b9050919050565b600080610c8983611640565b9050600073ffffffffffffffffffffffffffffffffffffffff168173ffffffffffffffffffffffffffffffffffffffff1603610cfc57826040517f7e273289000000000000000000000000000000000000000000000000000000008152600401610cf39190611f6a565b60405180910390fd5b80915050919050565b60006004600083815260200190815260200160002060009054906101000a900473ffffffffffffffffffffffffffffffffffffffff169050919050565b600033905090565b610d57838383600161167d565b505050565b60606000825103610d7e57604051806020016040528060008152509050610ec9565b60006040518060600160405280604081526020016130586040913990506000600360028551610dad91906128ba565b610db79190612c5a565b6004610dc39190612c8b565b67ffffffffffffffff811115610ddc57610ddb611ffb565b5b6040519080825280601f01601f191660200182016040528015610e0e5781602001600182028036833780820191505090505b50905060018201602082018586518701602081018051600082525b82841015610e84576003840193508351603f8160121c168701518653600186019550603f81600c1c168701518653600186019550603f8160061c168701518653600186019550603f8116870151865360018601955050610e29565b80825260038a510660018114610ea15760028114610eb457610ebc565b603d6001870353603d6002870353610ebc565b603d60018703535b5050505050505080925050505b919050565b610ee8828260405180602001604052806000815250611842565b5050565b80600660008481526020019081526020016000209081610f0c9190612e79565b507ff8e1a15aba9398e019f0b49df1a4fde98ee17ae345cb5f6b5e2c27f5033e8ce782604051610f3c9190611f6a565b60405180910390a15050565b600080610f5484611640565b9050600073ffffffffffffffffffffffffffffffffffffffff168373ffffffffffffffffffffffffffffffffffffffff1614610f9657610f9581848661185e565b5b600073ffffffffffffffffffffffffffffffffffffffff168173ffffffffffffffffffffffffffffffffffffffff161461102757610fd860008560008061167d565b6001600360008373ffffffffffffffffffffffffffffffffffffffff1673ffffffffffffffffffffffffffffffffffffffff168152602001908152602001600020600082825403925050819055505b600073ffffffffffffffffffffffffffffffffffffffff168573ffffffffffffffffffffffffffffffffffffffff16146110aa576001600360008773ffffffffffffffffffffffffffffffffffffffff1673ffffffffffffffffffffffffffffffffffffffff168152602001908152602001600020600082825401925050819055505b846002600086815260200190815260200160002060006101000a81548173ffffffffffffffffffffffffffffffffffffffff021916908373ffffffffffffffffffffffffffffffffffffffff160217905550838573ffffffffffffffffffffffffffffffffffffffff168273ffffffffffffffffffffffffffffffffffffffff167fddf252ad1be2c89b69c2b068fc378daa952ba7f163c4a11628f55a4df523b3ef60405160405180910390a4809150509392505050565b60606000600161117184611922565b01905060008167ffffffffffffffff8111156111905761118f611ffb565b5b6040519080825280601f01601f1916602001820160405280156111c25781602001600182028036833780820191505090505b509050600082602001820190505b600115611225578080600190039150507f3031323334353637383961626364656600000000000000000000000000000000600a86061a8153600a858161121957611218612c2b565b5b049450600085036111d0575b819350505050919050565b600073ffffffffffffffffffffffffffffffffffffffff168273ffffffffffffffffffffffffffffffffffffffff16036112a157816040517f5b08ba180000000000000000000000000000000000000000000000000000000081526004016112989190611e54565b60405180910390fd5b80600560008573ffffffffffffffffffffffffffffffffffffffff1673ffffffffffffffffffffffffffffffffffffffff16815260200190815260200160002060008473ffffffffffffffffffffffffffffffffffffffff1673ffffffffffffffffffffffffffffffffffffffff16815260200190815260200160002060006101000a81548160ff0219169083151502179055508173ffffffffffffffffffffffffffffffffffffffff168373ffffffffffffffffffffffffffffffffffffffff167f17307eab39ab6107e8899845ad3d59bd9653f200f220920489ca2b5937696c31836040516113929190611ce3565b60405180910390a3505050565b60008373ffffffffffffffffffffffffffffffffffffffff163b1115611550578273ffffffffffffffffffffffffffffffffffffffff1663150b7a026113e3610d42565b8685856040518563ffffffff1660e01b81526004016114059493929190612fa0565b6020604051808303816000875af192505050801561144157506040513d601f19601f8201168201806040525081019061143e9190613001565b60015b6114c5573d8060008114611471576040519150601f19603f3d011682016040523d82523d6000602084013e611476565b606091505b5060008151036114bd57836040517f64a0ae920000000000000000000000000000000000000000000000000000000081526004016114b49190611e54565b60405180910390fd5b805181602001fd5b63150b7a0260e01b7bffffffffffffffffffffffffffffffffffffffffffffffffffffffff1916817bffffffffffffffffffffffffffffffffffffffffffffffffffffffff19161461154e57836040517f64a0ae920000000000000000000000000000000000000000000000000000000081526004016115459190611e54565b60405180910390fd5b505b50505050565b606060405180602001604052806000815250905090565b606061157882610c7d565b506000611583611556565b905060008151116115a357604051806020016040528060008152506115ce565b806115ad84611162565b6040516020016115be929190612c07565b6040516020818303038152906040525b915050919050565b60007f01ffc9a7000000000000000000000000000000000000000000000000000000007bffffffffffffffffffffffffffffffffffffffffffffffffffffffff1916827bffffffffffffffffffffffffffffffffffffffffffffffffffffffff1916149050919050565b60006002600083815260200190815260200160002060009054906101000a900473ffffffffffffffffffffffffffffffffffffffff169050919050565b80806116b65750600073ffffffffffffffffffffffffffffffffffffffff168273ffffffffffffffffffffffffffffffffffffffff1614155b156117ea5760006116c684610c7d565b9050600073ffffffffffffffffffffffffffffffffffffffff168373ffffffffffffffffffffffffffffffffffffffff161415801561173157508273ffffffffffffffffffffffffffffffffffffffff168173ffffffffffffffffffffffffffffffffffffffff1614155b801561174457506117428184610adc565b155b1561178657826040517fa9fbf51f00000000000000000000000000000000000000000000000000000000815260040161177d9190611e54565b60405180910390fd5b81156117e857838573ffffffffffffffffffffffffffffffffffffffff168273ffffffffffffffffffffffffffffffffffffffff167f8c5be1e5ebec7d5bd14f71427d1e84f3dd0314c0f7b2291e5b200ac8c7c3b92560405160405180910390a45b505b836004600085815260200190815260200160002060006101000a81548173ffffffffffffffffffffffffffffffffffffffff021916908373ffffffffffffffffffffffffffffffffffffffff16021790555050505050565b61184c8383611a75565b611859600084848461139f565b505050565b611869838383611b6e565b61191d57600073ffffffffffffffffffffffffffffffffffffffff168373ffffffffffffffffffffffffffffffffffffffff16036118de57806040517f7e2732890000000000000000000000000000000000000000000000000000000081526004016118d59190611f6a565b60405180910390fd5b81816040517f177e802f00000000000000000000000000000000000000000000000000000000815260040161191492919061302e565b60405180910390fd5b505050565b600080600090507a184f03e93ff9f4daa797ed6e38ed64bf6a1f0100000000000000008310611980577a184f03e93ff9f4daa797ed6e38ed64bf6a1f010000000000000000838161197657611975612c2b565b5b0492506040810190505b6d04ee2d6d415b85acef810000000083106119bd576d04ee2d6d415b85acef810000000083816119b3576119b2612c2b565b5b0492506020810190505b662386f26fc1000083106119ec57662386f26fc1000083816119e2576119e1612c2b565b5b0492506010810190505b6305f5e1008310611a15576305f5e1008381611a0b57611a0a612c2b565b5b0492506008810190505b6127108310611a3a576127108381611a3057611a2f612c2b565b5b0492506004810190505b60648310611a5d5760648381611a5357611a52612c2b565b5b0492506002810190505b600a8310611a6c576001810190505b80915050919050565b600073ffffffffffffffffffffffffffffffffffffffff168273ffffffffffffffffffffffffffffffffffffffff1603611ae75760006040517f64a0ae92000000000000000000000000000000000000000000000000000000008152600401611ade9190611e54565b60405180910390fd5b6000611af583836000610f48565b9050600073ffffffffffffffffffffffffffffffffffffffff168173ffffffffffffffffffffffffffffffffffffffff1614611b695760006040517f73c6ac6e000000000000000000000000000000000000000000000000000000008152600401611b609190611e54565b60405180910390fd5b505050565b60008073ffffffffffffffffffffffffffffffffffffffff168373ffffffffffffffffffffffffffffffffffffffff1614158015611c2657508273ffffffffffffffffffffffffffffffffffffffff168473ffffffffffffffffffffffffffffffffffffffff161480611be75750611be68484610adc565b5b80611c2557508273ffffffffffffffffffffffffffffffffffffffff16611c0d83610d05565b73ffffffffffffffffffffffffffffffffffffffff16145b5b90509392505050565b6000604051905090565b600080fd5b600080fd5b60007fffffffff0000000000000000000000000000000000000000000000000000000082169050919050565b611c7881611c43565b8114611c8357600080fd5b50565b600081359050611c9581611c6f565b92915050565b600060208284031215611cb157611cb0611c39565b5b6000611cbf84828501611c86565b91505092915050565b60008115159050919050565b611cdd81611cc8565b82525050565b6000602082019050611cf86000830184611cd4565b92915050565b600081519050919050565b600082825260208201905092915050565b60005b83811015611d38578082015181840152602081019050611d1d565b60008484015250505050565b6000601f19601f8301169050919050565b6000611d6082611cfe565b611d6a8185611d09565b9350611d7a818560208601611d1a565b611d8381611d44565b840191505092915050565b60006020820190508181036000830152611da88184611d55565b905092915050565b6000819050919050565b611dc381611db0565b8114611dce57600080fd5b50565b600081359050611de081611dba565b92915050565b600060208284031215611dfc57611dfb611c39565b5b6000611e0a84828501611dd1565b91505092915050565b600073ffffffffffffffffffffffffffffffffffffffff82169050919050565b6000611e3e82611e13565b9050919050565b611e4e81611e33565b82525050565b6000602082019050611e696000830184611e45565b92915050565b611e7881611e33565b8114611e8357600080fd5b50565b600081359050611e9581611e6f565b92915050565b60008060408385031215611eb257611eb1611c39565b5b6000611ec085828601611e86565b9250506020611ed185828601611dd1565b9150509250929050565b600080600060608486031215611ef457611ef3611c39565b5b6000611f0286828701611e86565b9350506020611f1386828701611e86565b9250506040611f2486828701611dd1565b9150509250925092565b600060208284031215611f4457611f43611c39565b5b6000611f5284828501611e86565b91505092915050565b611f6481611db0565b82525050565b6000602082019050611f7f6000830184611f5b565b92915050565b611f8e81611cc8565b8114611f9957600080fd5b50565b600081359050611fab81611f85565b92915050565b60008060408385031215611fc857611fc7611c39565b5b6000611fd685828601611e86565b9250506020611fe785828601611f9c565b9150509250929050565b600080fd5b600080fd5b7f4e487b7100000000000000000000000000000000000000000000000000000000600052604160045260246000fd5b61203382611d44565b810181811067ffffffffffffffff8211171561205257612051611ffb565b5b80604052505050565b6000612065611c2f565b9050612071828261202a565b919050565b600067ffffffffffffffff82111561209157612090611ffb565b5b61209a82611d44565b9050602081019050919050565b82818337600083830152505050565b60006120c96120c484612076565b61205b565b9050828152602081018484840111156120e5576120e4611ff6565b5b6120f08482856120a7565b509392505050565b600082601f83011261210d5761210c611ff1565b5b813561211d8482602086016120b6565b91505092915050565b600080600080608085870312156121405761213f611c39565b5b600061214e87828801611e86565b945050602061215f87828801611e86565b935050604061217087828801611dd1565b925050606085013567ffffffffffffffff81111561219157612190611c3e565b5b61219d878288016120f8565b91505092959194509250565b600080604083850312156121c0576121bf611c39565b5b60006121ce85828601611e86565b92505060206121df85828601611e86565b9150509250929050565b7f4e487b7100000000000000000000000000000000000000000000000000000000600052602260045260246000fd5b6000600282049050600182168061223057607f821691505b602082108103612243576122426121e9565b5b50919050565b600081905092915050565b7f3c73766720786d6c6e733d22687474703a2f2f7777772e77332e6f72672f323060008201527f30302f73766722207072657365727665417370656374526174696f3d22784d6960208201527f6e594d696e206d656574222076696577426f783d22302030203335302033353060408201527f223e000000000000000000000000000000000000000000000000000000000000606082015250565b60006122fc606283612249565b915061230782612254565b606282019050919050565b7f3c7374796c653e2e62617365207b2066696c6c3a2077686974653b20666f6e7460008201527f2d66616d696c793a2073657269663b20666f6e742d73697a653a20313470783b60208201527f207d3c2f7374796c653e00000000000000000000000000000000000000000000604082015250565b6000612394604a83612249565b915061239f82612312565b604a82019050919050565b7f3c726563742077696474683d223130302522206865696768743d22313030252260008201527f2066696c6c3d22626c61636b22202f3e00000000000000000000000000000000602082015250565b6000612406603083612249565b9150612411826123aa565b603082019050919050565b7f3c7465787420783d223530252220793d223430252220636c6173733d2262617360008201527f652220646f6d696e616e742d626173656c696e653d226d6964646c652220746560208201527f78742d616e63686f723d226d6964646c65223e00000000000000000000000000604082015250565b600061249e605383612249565b91506124a98261241c565b605382019050919050565b7f456d6265722057617272696f7200000000000000000000000000000000000000600082015250565b60006124ea600d83612249565b91506124f5826124b4565b600d82019050919050565b7f3c2f746578743e00000000000000000000000000000000000000000000000000600082015250565b6000612536600783612249565b915061254182612500565b600782019050919050565b7f3c7465787420783d223530252220793d223530252220636c6173733d2262617360008201527f652220646f6d696e616e742d626173656c696e653d226d6964646c652220746560208201527f78742d616e63686f723d226d6964646c65223e00000000000000000000000000604082015250565b60006125ce605383612249565b91506125d98261254c565b605382019050919050565b7f4c6576656c733a00000000000000000000000000000000000000000000000000600082015250565b600061261a600783612249565b9150612625826125e4565b600782019050919050565b600061263b82611cfe565b6126458185612249565b9350612655818560208601611d1a565b80840191505092915050565b7f3c2f7376673e0000000000000000000000000000000000000000000000000000600082015250565b6000612697600683612249565b91506126a282612661565b600682019050919050565b60006126b8826122ef565b91506126c382612387565b91506126ce826123f9565b91506126d982612491565b91506126e4826124dd565b91506126ef82612529565b91506126fa826125c1565b91506127058261260d565b91506127118284612630565b915061271c82612529565b91506127278261268a565b915081905092915050565b7f646174613a696d6167652f7376672b786d6c3b6261736536342c000000000000600082015250565b6000612768601a83612249565b915061277382612732565b601a82019050919050565b60006127898261275b565b91506127958284612630565b915081905092915050565b7f4e487b7100000000000000000000000000000000000000000000000000000000600052601160045260246000fd5b60006127da82611db0565b91507fffffffffffffffffffffffffffffffffffffffffffffffffffffffffffffffff820361280c5761280b6127a0565b5b600182019050919050565b600060608201905061282c6000830186611e45565b6128396020830185611f5b565b6128466040830184611e45565b949350505050565b7f4d757374206f776e207468697320456d62657220746f6b656e2e000000000000600082015250565b6000612884601a83611d09565b915061288f8261284e565b602082019050919050565b600060208201905081810360008301526128b381612877565b9050919050565b60006128c582611db0565b91506128d083611db0565b92508282019050808211156128e8576128e76127a0565b5b92915050565b7f7b00000000000000000000000000000000000000000000000000000000000000600082015250565b6000612924600183612249565b915061292f826128ee565b600182019050919050565b7f226e616d65223a2022456d626572205761727320230000000000000000000000600082015250565b6000612970601583612249565b915061297b8261293a565b601582019050919050565b7f222c000000000000000000000000000000000000000000000000000000000000600082015250565b60006129bc600283612249565b91506129c782612986565b600282019050919050565b7f226465736372697074696f6e223a202244796e616d696320456d62657220776160008201527f7273206f6e20436861696e222c00000000000000000000000000000000000000602082015250565b6000612a2e602d83612249565b9150612a39826129d2565b602d82019050919050565b7f22696d616765223a202200000000000000000000000000000000000000000000600082015250565b6000612a7a600a83612249565b9150612a8582612a44565b600a82019050919050565b7f2200000000000000000000000000000000000000000000000000000000000000600082015250565b6000612ac6600183612249565b9150612ad182612a90565b600182019050919050565b7f7d00000000000000000000000000000000000000000000000000000000000000600082015250565b6000612b12600183612249565b9150612b1d82612adc565b600182019050919050565b6000612b3382612917565b9150612b3e82612963565b9150612b4a8285612630565b9150612b55826129af565b9150612b6082612a21565b9150612b6b82612a6d565b9150612b778284612630565b9150612b8282612ab9565b9150612b8d82612b05565b91508190509392505050565b7f646174613a6170706c69636174696f6e2f6a736f6e3b6261736536342c000000600082015250565b6000612bcf601d83612249565b9150612bda82612b99565b601d82019050919050565b6000612bf082612bc2565b9150612bfc8284612630565b915081905092915050565b6000612c138285612630565b9150612c1f8284612630565b91508190509392505050565b7f4e487b7100000000000000000000000000000000000000000000000000000000600052601260045260246000fd5b6000612c6582611db0565b9150612c7083611db0565b925082612c8057612c7f612c2b565b5b828204905092915050565b6000612c9682611db0565b9150612ca183611db0565b9250828202612caf81611db0565b91508282048414831517612cc657612cc56127a0565b5b5092915050565b60008190508160005260206000209050919050565b60006020601f8301049050919050565b600082821b905092915050565b600060088302612d2f7fffffffffffffffffffffffffffffffffffffffffffffffffffffffffffffffff82612cf2565b612d398683612cf2565b95508019841693508086168417925050509392505050565b6000819050919050565b6000612d76612d71612d6c84611db0565b612d51565b611db0565b9050919050565b6000819050919050565b612d9083612d5b565b612da4612d9c82612d7d565b848454612cff565b825550505050565b600090565b612db9612dac565b612dc4818484612d87565b505050565b5b81811015612de857612ddd600082612db1565b600181019050612dca565b5050565b601f821115612e2d57612dfe81612ccd565b612e0784612ce2565b81016020851015612e16578190505b612e2a612e2285612ce2565b830182612dc9565b50505b505050565b600082821c905092915050565b6000612e5060001984600802612e32565b1980831691505092915050565b6000612e698383612e3f565b9150826002028217905092915050565b612e8282611cfe565b67ffffffffffffffff811115612e9b57612e9a611ffb565b5b612ea58254612218565b612eb0828285612dec565b600060209050601f831160018114612ee35760008415612ed1578287015190505b612edb8582612e5d565b865550612f43565b601f198416612ef186612ccd565b60005b82811015612f1957848901518255600182019150602085019450602081019050612ef4565b86831015612f365784890151612f32601f891682612e3f565b8355505b6001600288020188555050505b505050505050565b600081519050919050565b600082825260208201905092915050565b6000612f7282612f4b565b612f7c8185612f56565b9350612f8c818560208601611d1a565b612f9581611d44565b840191505092915050565b6000608082019050612fb56000830187611e45565b612fc26020830186611e45565b612fcf6040830185611f5b565b8181036060830152612fe18184612f67565b905095945050505050565b600081519050612ffb81611c6f565b92915050565b60006020828403121561301757613016611c39565b5b600061302584828501612fec565b91505092915050565b60006040820190506130436000830185611e45565b6130506020830184611f5b565b939250505056fe4142434445464748494a4b4c4d4e4f505152535455565758595a6162636465666768696a6b6c6d6e6f707172737475767778797a303132333435363738392b2fa26469706673582212209f1edab4076d0e7b17043dbf4c3d5e98819b47a47ce88b94289a4b6403ae9dd064736f6c63430008180033",
  "linkReferences": {},
  "deployedLinkReferences": {}
}